:020000040800F2
:10000000D0060020CD010008EF1300087713000888
:10001000ED13000843040008C118000800000000A8
:10002000000000000000000000000000F3130008C2
:100030004504000800000000F11300085D150008E9
:10004000E7010008E7010008E7010008E7010008F0
:10005000E7010008E7010008E7010008E7010008E0
:10006000E7010008E7010008E7010008E7010008D0
:10007000E7010008E7010008E7010008E7010008C0
:10008000E7010008E7010008E7010008E7010008B0
:10009000E7010008E7010008E7010008E7010008A0
:1000A000E7010008E7010008E7010008E701000890
:1000B000E7010008E7010008E7010008E701000880
:1000C000E7010008E7010008E7010008E701000870
:1000D000E7010008E7010008E7010008E701000860
:1000E000E7010008E7010008E7010008E701000850
:1000F000E7010008E7010008E7010008E701000840
:10010000E7010008E7010008E7010008E70100082F
:10011000E7010008E7010008E7010008E70100081F
:10012000E7010008E7010008E7010008E70100080F
:1001300000F002F800F03AF80AA090E8000C8244BF
:100140008344AAF10107DA4501D100F02FF8AFF29C
:10015000090EBAE80F0013F0010F18BFFB1A43F0A5
:1001600001031847C4320000E4320000103A24BFF3
:1001700078C878C1FAD8520724BF30C830C144BF0C
:1001800004680C607047000000230024002500264E
:10019000103A28BF78C1FBD8520728BF30C148BFEA
:1001A0000B6070471FB51FBD10B510BD00F00FF9F3
:1001B0001146FFF7F7FF02F0EFFA00F02DF903B454
:1001C000FFF7F2FF03BC00F035F900000948804753
:1001D00009480047FEE7FEE7FEE7FEE7FEE7FEE729
:1001E000FEE7FEE7FEE7FEE704480549054A064B41
:1001F00070470000C115000831010008D000002040
:10020000D0060020D0020020D002002053EA020CC9
:1002100000F069802DE9F04B4FF00006002B1FBF66
:10022000B3FA83F503FA05F424FA05F65E4012BF2B
:100230001643B2FA82F502FA05F4C5F120051EBF95
:1002400022FA05FC44EA0C04203556EA044C4FEA35
:10025000144418BF641C4FF000084FF0000990428E
:1002600071EB030C39D3002919BFB1FA81F701FAF8
:1002700007F6B0FA80F700FA07F6C7F120071EBFAD
:1002800020FA07FC46EA0C062037B6FBF4FCA7EB85
:100290000507103F07F01F0BCBF120060CFA0BFBF4
:1002A0002CFA06F644BFB3460026202FA4BF5E46B4
:1002B0004FF0000B5BEA060C08BF4FF0010B19EB87
:1002C0000B09ABFB027C48EB0608C01B06FB02CC0B
:1002D0000BFB03CC71EB0C01C1E70B460246414618
:1002E0004846BDE8F08B13B54FF000004FF0000119
:1002F000AFF30080BDE81C4070474FF0000200B52E
:10030000134694469646203922BFA0E80C50A0E838
:100310000C50B1F12001BFF4F7AF090728BFA0E8E6
:100320000C5048BF0CC05DF804EB890028BF40F8B2
:10033000042B08BF704748BF20F8022B11F0804FF4
:1003400018BF00F8012B70474FF0013C50F8042B08
:1003500051F8043B9A4221D1A2EB0C03934313EAD8
:10036000CC1317D150F8042B51F8043B9A4215D105
:10037000A2EB0C03934313EACC130BD150F8042BDC
:1003800051F8043B9A4209D1A2EB0C03934313EAC0
:10039000CC13DBD04FF00000704700BFD01A01BA79
:1003A000B1FA81F101F0180122FA01F0CB40C1F15C
:1003B0002001DBB2C0B2C01A2CFA01F3D11A91436A
:1003C00011EAC311E6D17047704770477047754610
:1003D00000F02CF8AE4605006946534620F00700B1
:1003E000854618B020B5FFF7FFFEBDE820404FF06E
:1003F00000064FF000074FF000084FF0000B21F00F
:100400000701AC46ACE8C009ACE8C009ACE8C009DB
:10041000ACE8C0098D46704710B50446AFF30080C4
:100420002046BDE81040FFF7CABE000000487047F4
:100430007000002001491820ABBEFEE72600020034
:100440007047FEE7704770472DE9F84FDFF8D0B2EC
:100450000D4604464FF00009584515D0B148844276
:1004600012D0B14884420FD0B04884420CD0B0487A
:10047000844209D0AF48844206D0AF48844203D0BA
:10048000CD21AEA002F010F928680104090C01D0BA
:10049000000C03D0CE21A9A002F006F96868F8B1DB
:1004A00001281DD011281BD0022819D0122817D0DE
:1004B000B149884214D0B149884211D0B04988422C
:1004C0000ED0B04988420BD0AF49884208D0AF491E
:1004D000884205D0032803D0CF2198A002F0E4F889
:1004E00000274FF0010A00BF2E680AFA07F806EA53
:1004F0000806464575D15C4515D08A48844212D01D
:10050000894884420FD0894884420CD0884884426C
:1005100009D08848844206D08748844203D0DD2130
:1005200086A002F0C1F8944869680A1A814259D03D
:100530000EDC032976D006DC002953D0012919D01E
:1005400002296AD131E0112921D0122965D13AE07E
:10055000B2F5881F46D006DCB2F5803F42D0B2F536
:10056000801F5AD13EE0B2F5001F3BD0B2F5041F08
:1005700053D137E0E868022807D0012805D00328C6
:1005800003D0E5216DA002F08FF8E8683FE0E8684D
:10059000022807D0012805D0032803D0EC2167A04A
:1005A00002F082F8E868001D31E0E868022807D010
:1005B000012805D0032803D0F32160A002F074F8CD
:1005C000E868083023E0E868022807D0012805D051
:1005D000032803D0FA2159A002F066F8E8680C302D
:1005E00015E091E0A86888B1012812D0022808D04F
:1005F00040F2071151A002F057F8A86830B1012865
:1006000007D04FF00809C4F8148006E004208146A2
:1006100003E04FF00809C4F81080FF2E05D82246E9
:1006200005E0FFE74FF00000F1E704F104024FEAB4
:10063000870001D9A0F1200013684FF00F0101FAE3
:1006400000FC23EA0C0309FA00FC43EA0C031360E4
:100650006868C0005ED54E48826942F0010282613E
:10066000806927F0030200F0010000904948131848
:100670009868BA07120F914088435C4501D1002168
:1006800019E028498C4201D1012114E026498C420D
:1006900001D102210FE025498C4201D103210AE05A
:1006A00023498C4201D1042105E022498C4201D129
:1006B000052100E006219140014399606868C0036C
:1006C00004D5354908683043086003E032480168C2
:1006D000B1430160686880033048016801D5314347
:1006E00000E0B14301606868C0022D48016801D58F
:1006F000314300E0B14301606868800205D52848B5
:10070000001D01683143016004E02549091D0868A6
:10071000B04308607F1C102FFFF4E6AEBDE8F88FF1
:1007200000080140000C014000100140001401408D
:1007300000180140001C0140002001402E2E2F44D3
:100740007269766572732F53544D3332463178781F
:100750005F48414C5F4472697665722F5372632F14
:1007600073746D3332663178785F68616C5F67707F
:10077000696F2E63000000000000111000002110BE
:100780000000311000001210000022100000321092
:100790000010024000000140000401400404014038
:1007A00008040140014880687047000000000020F4
:1007B000074810B5016841F010010160032000F006
:1007C0008FF8002000F006F800F024F8002010BD9B
:1007D0000020024070B50D4D04464FF47A71287820
:1007E000B1FBF0F00A490968B1FBF0F000F085FCBC
:1007F00048B9102C07D200222146501E00F020F8E4
:1008000000206C6070BD012070BD00000000002061
:100810000C000020094808B5816941F0010181619F
:10082000816901F001010091C16941F08051C1610C
:10083000C06900F08050009008BD00000010024028
:1008400070B515460C460646102A03D3BA2114A0EB
:1008500001F02AFF102C03D3BB2111A001F024FFCB
:100860001E480068C0F30223C3F107022046042A91
:1008700000D90422191D072901D2002300E0DB1E44
:10088000012404FA02F1491E014099409C40641E73
:100890002C4021433046BDE8704001F012B8000002
:1008A0002E2E2F447269766572732F53544D333256
:1008B000463178785F48414C5F4472697665722FA3
:1008C0005372632F73746D3332663178785F686169
:1008D0006C5F636F727465782E6300000CED00E04E
:1008E00010B5044607280BD0062C09D0052C07D0DC
:1008F000042C05D0032C03D0A22108A001F0D4FEC3
:10090000154904F0070208684FF6FF03184040EA53
:100910000220124A1043086010BD00002E2E2F4402
:100920007269766572732F53544D3332463178783D
:100930005F48414C5F4472697665722F5372632F32
:1009400073746D3332663178785F68616C5F636FA2
:10095000727465782E6300000CED00E00000FA056B
:100960002DE9F0470E46050004D140F22E3187A054
:1009700001F09AFE2868C1070AD1810708D441070F
:1009800006D4000704D440F22F3180A001F08CFE81
:1009900046B1012E06D0022E04D04FF44C717BA03C
:1009A00001F082FEDFF81C82D8F8000000F007009A
:1009B000B0420CD2D8F8001021F007013143C8F83A
:1009C0000010D8F8000000F00700B04275D1286888
:1009D0007D4C810729D5400703D5606840F4E0606D
:1009E00060602878000703D5606840F4605060605C
:1009F000A868A0B1802812D0902810D0A0280ED0CE
:100A0000B0280CD0C0280AD0D02808D0E02806D0C2
:100A1000F02804D040F256315CA001F045FE606839
:100A2000A96820F0F000084360602878C00751D022
:100A3000686868B1012821D0022822D040F25D31D7
:100A400052A001F031FE6868012817D0022818D0A2
:100A50002068800700284EDA6068696820F003008B
:100A600008436060FFF79EFE6968074641F28830E0
:100A700001290FD00229814619D027E02068800380
:100A8000E8E720688001E5E7FFF78CFEC11B4945D8
:100A900001D918E081466068C0F381000128F3D1D4
:100AA00018E000BFFFF77EFEC11B49450BD8606808
:100AB000C0F381000228F5D10CE01CE0FFF772FEC4
:100AC000C11B494502D90320BDE8F087606810F0DA
:100AD0000C0FF3D1D8F80010404601F00701B142E5
:100AE0000BD9016821F0070131430160006800F073
:100AF0000700B04201D00120E6E728784FF4806675
:100B000040074FF4A0674FF4C0684FF4E06914D574
:100B1000E86860B1B0420AD0B84208D0404506D07B
:100B2000484504D040F2B13118A001F0BDFD606825
:100B3000E96820F4E060084360602878000715D574
:100B4000286960B1B0420AD0B84208D0404506D00A
:100B5000484504D04FF46E710CA001F0A5FD60680B
:100B6000296920F4605040EAC100606000F052F84A
:100B70006168164AC1F30311515CC840144908600A
:100B80000020FFF727FE00209EE700002E2E2F44B6
:100B90007269766572732F53544D333246317878CB
:100BA0005F48414C5F4472697665722F5372632FC0
:100BB00073746D3332663178785F68616C5F72632D
:100BC000632E63000020024000100240B033000892
:100BD0000C0000200448054900684968044AC1F334
:100BE0000221515CC84070470C00002000100240F8
:100BF000C03300080448054900684968044AC1F345
:100C0000C221515CC84070470C0000200010024017
:100C1000C033000812A185B00FC98DE80F0014A0E1
:100C2000144A006804905168134801F00C03042B27
:100C300010D0082B0ED1C1F38343C9031DF8030064
:100C40000AD5516804AAC1F34041515C0A4A504395
:100C5000B0FBF1F005B0704708494843FAE70000DF
:100C600002030405060708090A0B0C0D0E0F1010ED
:100C7000010200000010024000127A0000093D004D
:100C80002DE9F84F040004D14FF4B871F4A001F03D
:100C90000BFD4FF0010A4FF000084FF48039FE4E73
:100CA000FE4D206860B1C1070DD1810763D40107F3
:100CB0007ED440077DD440F27111E9A001F0F4FC2C
:100CC0002078C00754D060684FF4A02740B1484551
:100CD00006D0B84204D040F27711E1A001F0E4FC64
:100CE0006868C0F38100012807D06868C0F38100FC
:100CF000022809D16868C00306D52868800337D563
:100D00006068002876D033E06068484503D12868E1
:100D100040F4803009E008B1B8420DD0286820F4D2
:100D200080302860286820F480202860606890B1B6
:100D3000FFF738FD07460AE0286840F48020286065
:100D4000E5E700BFFFF72EFDC01B642877D82868B1
:100D50008003F7D50CE0FFF725FD074605E000BF4F
:100D6000FFF720FDC01B6428F0D828688003F7D463
:100D7000207880074ED5206930B1012804D040F298
:100D8000AB11B7A001F090FC60691F2804D94FF4A3
:100D9000D671B3A001F088FC686810F00C0F0AD07F
:100DA0006868C0F3810002280CD16868C00301E0C4
:100DB00033E06CE006D42868800713D52069012849
:100DC00018D10FE02069B0B1C6F800A0FFF7EAFC27
:100DD000074604E0FFF7E6FCC01B0228B6D82868E7
:100DE0008007F7D52868616920F0F80040EAC10063
:100DF00028600FE033E1C6F80080FFF7D3FC074618
:100E000005E000BFFFF7CEFCC01B02289ED8286873
:100E10008007F7D42078000736D5A14FA06920B30A
:100E2000012806D04FF4F6718DA001F03DFCA069B9
:100E3000D8B1C7F800A0FFF7B5FC074605E052E1BE
:100E4000FFF7B0FCC01B02288ED8686A8007F7D570
:100E500094484FF4FA510068B0FBF1F0009000BFE5
:100E60000098411E0091FAD20EE0C7F80080FFF70B
:100E700099FC074605E000BFFFF794FCC01B022861
:100E8000ACD8686A8007F7D4207840076CD5E06852
:100E9000002740B1012806D0052804D040F21B21CC
:100EA0006FA001F001FCE869C00008D4E86940F0D7
:100EB0008050E861E869012700F0805000907A488E
:100EC0000168C90512D4016841F480710160FFF71F
:100ED00069FC834606E000BFFFF764FCA0EB0B0053
:100EE000642893D870480068C005F5D5E0680128EB
:100EF0000AD008B1052811D0286A20F00100286224
:100F0000286A20F0040002E0286A40F0010028620C
:100F1000E068A8B1FFF746FC83460DE0286A40F080
:100F200004002862F0E700BFFFF73CFCA0EB0B01D8
:100F300041F28830814287D8286A8007F4D50EE0D4
:100F4000FFF730FC834607E0FFF72CFCA0EB0B011A
:100F500041F28830814293D8286A8007F4D41FB1C7
:100F6000E86920F08050E861E069002876D0012827
:100F700009D0022807D040F2B92139A001F094FB32
:100F8000E06900286AD06868C0F38100022866D052
:100F9000E069022805D0C6F86080FFF703FC04462C
:100FA000A4E0206A30B1484504D040F2C2212CA010
:100FB00001F07AFB606A70B3B0F5802F2BD0B0F5EA
:100FC000002F28D0B0F5402F25D0B0F5801F22D0BB
:100FD000B0F5A01F1FD0B0F5C01F1CD0B0F5E01FAA
:100FE00019D0B0F5001F16D0B0F5101F13D0B0F512
:100FF000201F10D0B0F5301F0DD0B0F5401F0AD023
:10100000B0F5501F07D0B0F5601F04D040F2C321E7
:1010100013A001F049FBC6F86080FFF7C3FB074649
:1010200005E000BFFFF7BEFBC01B02285BD82868A5
:101030008001F7D4206A48450FD1A06838B1B0F5D7
:10104000003F04D040F2D92105A001F02DFB6868D3
:10105000A16820F400300843686027E049E04AE0D6
:101060002E2E2F447269766572732F53544D33328E
:10107000463178785F48414C5F4472697665722FDB
:101080005372632F73746D3332663178785F6861A1
:101090006C5F7263632E63000000424200100240E6
:1010A000800442420C00002000700040D4E9080196
:1010B0000843696821F4741108436860C6F860A0A9
:1010C000FFF770FB044604E0FFF76CFB001B0228EF
:1010D00009D828688001F7D50BE000BFFFF762FB55
:1010E000001B022802D90320BDE8F88F2868800180
:1010F000F4D40020F8E70120F6E710B5401EB0F167
:10110000807F01D3012010BD4FF0E02460610F21EA
:10111000601700F0D6FB0020A061072020610020AE
:1011200010BD000070B5040020D0A069334900282C
:10113000334A344B20681BD088420AD0904208D0F2
:10114000984206D040F20F112FA001F0ADFAA0692D
:10115000F8B1A069B0F5807F1BD0B0F5007F18D042
:10116000B0F5407F15D04FF488710FE0012070BDBD
:1011700088420ED090420CD098420AD03149884221
:1011800007D03149884204D04FF48A711EA001F083
:101190008BFAA06838B1B0F5805F04D04FF48B7142
:1011A00019A001F081FA94F83900002520B984F8DB
:1011B0003850204600F04AF8242084F8390020688E
:1011C000C16821F40051C160204600F043FA206854
:1011D000016921F4904101612068416921F02A01EF
:1011E00041612068C16841F40051C160E56320207D
:1011F00084F8390084F83A00002070BD00380140BE
:1012000000440040004800402E2E2F44726976654D
:1012100072732F53544D3332463178785F48414CC6
:101220005F4472697665722F5372632F73746D33E6
:1012300032663178785F68616C5F756172742E63B5
:1012400000000000004C00400050004030B585B068
:101250000024009401940294039400681449884285
:1012600024D11448816941F480418161816901F48C
:1012700080410491816941F00401816180690E4DD2
:1012800000F0040004904FF40070009002200190E0
:101290000320039069462846FFF7D6F82815CDE9C4
:1012A0000004694628460294FFF7CEF805B030BD29
:1012B0000038014000100240000801402DE9F843C9
:1012C000044690F839001F4616460D46202850D196
:1012D000A5B19EB194F8380001284AD0012084F8C5
:1012E00038004FF00008C4F83C80212084F8390011
:1012F000FFF758FAA6848146E68426E00120BDE87F
:10130000F883E08C401EE084A0684B46B0F5805F17
:101310004FF000024FF080012046009703D000F00C
:101320009DFAE8B90DE000F099FAC8B9288821685B
:10133000C0F308004860206908B16D1C05E0AD1CD1
:1013400003E0216815F8010B4860E08C0028D8D133
:101350004B46002240212046009700F07FFA08B15A
:101360000320CCE7202084F8390084F8388000205E
:10137000C5E70220C3E7FEE70D4808B5816941F0E3
:1013800010018161816901F010010091816941F0D2
:1013900020018161816901F020010091816941F0A2
:1013A00004018161806900F00400009008BD000024
:1013B000001002400B48016821F080710160016853
:1013C00041F0807101600848016821F0010101606D
:1013D000016841F0010101600021416000BF00BFD0
:1013E00070470000FCED00E0001000E0FEE77047F1
:1013F00070477047814201D9081A7047C0430844BA
:10140000401C70470149C968FFF7F4BF1000002075
:1014100070B5104E0025044635801821102001F0CB
:1014200089F9B0601CB963210BA001F03DF91248A5
:101430000068B0FBF4F0401EB0F1807F09D24FF09D
:10144000E02148610D4AF02082F8140D8D610720DB
:10145000086170BD100000202E2E5C4D5F4253507D
:101460005C4D5F434F52455C6D5F736368656475A7
:101470006C65722E630000000C0000200FE000E09D
:1014800070B500240C4D12E0A96804EB440001EB98
:10149000C002107D50B11069FFF7B4FFD1688842D7
:1014A00004D3E8681061D2E901108847641C6868B9
:1014B0008442E9D370BD0000100000200248C168DA
:1014C000491CC16070470000100000202DE9F04762
:1014D000214C8046DDF820A020881E4691460F460C
:1014E000102802D30020BDE8F08700250CE000BFE3
:1014F000A16805EB450051F830104046FEF724FF87
:101500000028F0D06D1CEDB220888542F0D32088F1
:1015100000EB4002A06840F83280218801EB4101D5
:1015200000EBC101CF60228802EB420200EBC20255
:1015300082F81490218801EB410100EBC1014E605B
:10154000228802EB420200EBC200C0F808A020880B
:10155000401C20800120C6E710000020FFF7AEBF2E
:1015600030B58FB028216846FEF7C7FE14210AA8BF
:10157000FEF7C3FE01210804CDE900100024029407
:1015800002250491CDE907504FF4E0100990684618
:10159000FFF776FB08B1FEF756FF0F20CDE90A05ED
:1015A0004FF48060CDE90C4002210AA80E94FFF7A9
:1015B000D7F9002801D0FEF746FF0FB030BD00007C
:1015C0000D48016841F00101016041680B4A11407A
:1015D000416001680A4A11400160016821F48021DC
:1015E0000160416821F4FE0141604FF41F018160F8
:1015F0000449C00308607047001002400000FFF873
:10160000FFFFF6FE08ED00E000EB400101EB0011EA
:101610000F4810B500EB8100416840F80C1F50F8EE
:10162000041C0A6842604A6882608A68C260C968AD
:1016300001610C21416100218161C161FFF772FDEF
:10164000002803D0BDE81040FEF7FDBE10BD00002D
:10165000240000202DE9F041044640686E4988428C
:1016600004D340F6A7116DA001F01EF8E06838B170
:10167000B0F5005F04D040F6A81168A001F014F89E
:10168000206950B1B0F5806F07D0B0F5C06F04D0BD
:1016900040F6A91161A001F007F860694FF6F371F7
:1016A000084200D120B940F6AA115CA000F0FCFF6E
:1016B00020680169E26821F4405111430161216908
:1016C000A0680843616908432168CA6841F20C6355
:1016D0009A430243CA6020684169A26921F44071BB
:1016E000114341615C4920686425322688423CD11F
:1016F000FFF780FA00EBC00101EB00106168890080
:10170000B0FBF1F7FFF776FA00EBC00101EB001038
:101710006168B0468900B0FBF1F0B0FBF5F06FF006
:101720001801484307EB800106EB0110B0FBF5F010
:1017300000F0F006FFF75EFA00EBC00101EB0010CD
:1017400061688900B0FBF1F0B0FBF5F006EB001624
:10175000FFF750FA00EBC00101EB0010616889004F
:10176000B0FBF1F7FFF746FA3BE0FFF733FA00EB87
:10177000C00101EB001061688900B0FBF1F7FFF7D1
:1017800029FA00EBC00101EB00106168B046890046
:10179000B0FBF1F0B0FBF5F06FF01801484307EB38
:1017A000800106EB0110B0FBF5F000F0F006FFF74A
:1017B00011FA00EBC00101EB001061688900B0FB79
:1017C000F1F0B0FBF5F006EB0016FFF703FA00EBC3
:1017D000C00101EB001061688900B0FBF1F7FFF771
:1017E000F9F900EBC00101EB001061688900B0FB62
:1017F000F1F0B0FBF5F06FF01801484307EB800102
:1018000008EB0110B0FBF5F0216800F00F00304448
:101810008860BDE8F081000021AA44002E2E2F44EC
:101820007269766572732F53544D3332463178782E
:101830005F48414C5F4472697665722F5372632F23
:1018400073746D3332663178785F68616C5F75618F
:1018500072742E6300000000003801402DE9F04151
:10186000984617460E460446069D1DE0681C1BD090
:101870002DB1FEF797FFA0EB0800A84214D920680D
:10188000C16821F4D071C1602068416921F0010173
:101890004161202084F8390084F83A00002084F85F
:1018A00038000320BDE8F0812068006836EA0000B7
:1018B00004D00020B842D9D00020F3E70120F9E796
:1018C000FEE70907090E002804DB00F1E02080F89C
:1018D0000014704700F00F0000F1E02080F8141DA4
:1018E000704770B5044600256FF02F0608E02068A9
:1018F000411C2160007805EB850106EB410145188C
:101900002068007800F0E4FA0028F0D1284670BD85
:101910002DE9FF4F89B016AEDDF8688096E8B00873
:101920004FF0FF3622462B462046294601F09EF90D
:101930000ED13246AC4B2046294601F095FB07D329
:1019400032466FF480132046294601F053FA0BD239
:10195000CDF810808DE8B00809AE96E80F0000F0D1
:101960006FF90DB0BDE8F08F0022134620462946DE
:1019700001F040FA04D2012085F00045079001E013
:10198000002007905FEA485000D406279749C5F326
:101990000A56C5F3130C20464CEA01010022944B71
:1019A000A6F2FF3601F0A2FB924A934B01F05EFAD9
:1019B00081468A46304601F0F2F9904A904B01F098
:1019C00055FA904A904B00F03DFF4A46534600F0CE
:1019D00039FF01F087F9064601F0E1F981468B4AAB
:1019E0008B4B019101F042FA00228A4B00F02AFF52
:1019F00001F078F9059001F0D2F9874A874B01F0A0
:101A000035FA824603914846854A864B019901F092
:101A10002DFA5246039B01F069FB81468A46024635
:101A20000B4601F023FACDE90310059840F2FF318F
:101A3000000500EB01500290DDE9031000227A4B13
:101A400000F0BCFF0022794B00F0FCFE02460B4682
:101A5000DDE9031000F0B2FF0022754B00F0F2FE4A
:101A600002460B46DDE9031000F0A8FF059108903F
:101A70004A46534600204FF0804101F037FB059B5A
:101A8000089A00F0DFFECDE90310012248465146D6
:101A900001F048FCDDE9033200F090FF0022534BD7
:101AA00000F0D0FE0022029B01F0E0F981468A4658
:101AB00002460B46009102902046294601F09AF911
:101AC00008D20022594B48465146761E00F076FF58
:101AD0000091029006F16300C72801D2042000E0C3
:101AE000052081465FEA08501ED5524A524B2046D7
:101AF000294601F0B9FA12D80022504B2046294657
:101B000001F078F90BD2B74202DDBF1B7F1E00E067
:101B100000274FF0000948F480684E4604E01FB1EA
:101B20005FEA485000D57F1ECB4502D9ABEB0900D8
:101B300000E0002082465FEA887004D5B9F1000F0A
:101B400001D04FF0000A3EB120462946009B029A80
:101B500000F034FF04460D460B980890079808B132
:101B600085F0004528F40060CDE903A08DE8B000C1
:101B70000DF1240C9CE80F0000F062F80446B9F166
:101B8000000F2FD0651C22465FEA886001D54520F2
:101B900000E06520DDE909410C9BA04702AC05236C
:101BA000A9F1010200210A2084E80F00F00F002EA5
:101BB00000DA7642CDE90060DDE909012A460C9B96
:101BC00000F0FFF904465FEA887007D40AE0224675
:101BD000DDE90951641C20200C9BA8470898211AB4
:101BE0005945F4D32046BCE6FFFFEF7F0000F03FED
:101BF0000000F83F61436F63A787D23FFB799F5096
:101C00001344D33FB3C8608B288AC63F71A37909B8
:101C10004F930A400000E03FEF39FAFE422EE63FC4
:101C20001655B5BBB16B024000002C4000002440AB
:101C3000000018402D431CEBE2361A3F80842E41F1
:101C40002DE9FF4F8DB01AACDDE91D9794E86004D3
:101C50004FF0FF3800242A4633462846314601F02B
:101C600005F802D003218FA209E042466FF48013E9
:101C70002846314601F0BEF809D204218AA2CDE9F6
:101C80000021CDE902970DAC94E80F0007E1424630
:101C9000874B2846314601F0E7F907D2790702D58C
:101CA000042184A2EBE7032184A2E8E70022844B0D
:101CB0002846314601F0D8F906D30022814B284648
:101CC000314601F097F80BD28DE86004CDE9039717
:101CD0000DAC94E80F00FFF71BFE11B0BDE8F08FCC
:101CE00000200246034602902846314601F082F861
:101CF00003D2012086F00046029078050AD44FF006
:101D0000060A07E005A830210155641CAAF1010A62
:101D1000202C04D2DFF8B081BAF1090FF2D828469E
:101D2000314600F0DFFF834601F039F82A4633469A
:101D300001F0D0F908EBCA030393D3E9002301F0C3
:101D400095F8CDE9000100F0FDFF804601F03EF876
:101D5000DDE9002301F0BEF900225C4BCDE9000172
:101D600001F082F90FD208F10100804601F02EF84F
:101D7000039BD3E9002301F077F913D84FF0000853
:101D80000BF1010B0EE0DDE9000100224F4B01F0E9
:101D900031F807D308F00100401E10EA080F01D106
:101DA00008F10108BAF1000002D00A2205A92AE0D0
:101DB000584600F0F4FF2A46334601F08BF9DFF86D
:101DC0000C8105460E460022434601F04DF906D926
:101DD000002243462846314601F046F921D25FEA07
:101DE000CB701ED00BF1010B1BE000BFB8FBF2F56E
:101DF00002FB158330330B55B8FBF2F3401E641C15
:101E00005FEA030805D0202CF0D31AE00A55641CC1
:101E100000E03022202C14D2401EF7D22E2008558C
:101E2000641C0A2005A9202C0BD29BFBF0F300FBBD
:101E300013B230320A559BFBF0F2641C5FEA020BCE
:101E4000F1D1B80714D4F80712D0B9F1000F06D0B9
:101E5000029907F00C00084301D0A9F101093020D4
:101E600005A94C4504D2202C12D20855641CF8E771
:101E7000202C0DD2029808B12D2106E0780701D55B
:101E80002B2102E0380703D5202105A80155641C49
:101E900005A903978DE812020DAD95E80F0000F03B
:101EA00016F91AE76E616E00666E692D000000007B
:101EB000FFFFEF7F666E692B00000000666E690011
:101EC00065CDCD4165CDCDC1C83300080000E03FF0
:101ED0003038092801D801207047002070472DE9CB
:101EE000FF5F91468A468346DDE90E20DDE9134116
:101EF000DDE91167DDF840C05FEA81784FF0300519
:101F00001AD45CB15FEAC17808D001F00C0858EA35
:101F10000C0803D0641E01E01554401CB84204D2E2
:101F20002028F9D301E01554401C5FEAC17803D0A2
:101F3000A04201D22028F6D35FEAC16825D55FEA26
:101F400041580AD448B1B84201D0A04205D1401E40
:101F500003D0102E03D1401E04E0102E02D0022E1A
:101F60000AD00EE08E0603D420281ED2782606E082
:101F700020281AD2582602E0202816D262261654AB
:101F8000401C202811D21554401C20280DD2BCF131
:101F9000000F01D02D2506E04D0701D52B2502E0CD
:101FA0000D0702D520251554401CCDE90020CDE9B0
:101FB00002414A465146584600F089F804B0BDE84F
:101FC000F09F2DE9F04F8FB099468B46DDE9181848
:101FD000DDE91C63DDE91A4792468646002209B90D
:101FE00023F01003580507AD00D5C9B1B1FBF4F0DB
:101FF00004FB1010C0B20A2801D2303009E05FEAB9
:10200000836C02D54FF0410C01E04FF0610C60444D
:102010000A38B1FBF4F1A854521C09B1202AE5D3C7
:10202000CDF80880CDE90563CDE90052CDE903473D
:102030004B46524659467046FFF751FF0FB0BDE878
:10204000F08F2DE9FF4F8FB01CACDDE9239594E8AC
:10205000030820AC94E8C004002450EA010201D136
:1020600025F010056A050DF11C0802D550EA0102A1
:1020700017D032463B46FEF7C9F8D2B20A2A01D23F
:10208000303206E0AB0601D5412300E061231A445B
:102090000A3A08F80420641C50EA010201D0202CFE
:1020A000E7D3CDE90084CDF808B0CDE90595CDE9B9
:1020B000036A0FAF97E80F00FFF711FF13B0BDE8F9
:1020C000F08F002801D000F039B8704770472DE933
:1020D000FF5F80460FA8DDF838B090E8C0041446D2
:1020E00091465FEA8A7014D1354607E02246641CA7
:1020F0002020C446039B0199E0476D1CBD42F5D3E7
:1021000007E02246641C761E039B1BF8060001991B
:10211000C047002EF5D15FEA8A7006D409E0224656
:10212000641C2020039B0199C047A4EB0900B8421E
:10213000F5D304B02046BDE8F09F000001B54FF094
:10214000FF33012269460248FFF7B8F808BD0000D6
:10215000300000202DE9FF4F89B005460A98002481
:102160009246002800D1F74D75E1252804D022467B
:10217000641C53460A9933E2491C4FF00008084694
:102180000C9101782B2919D004DC202919D023299E
:1021900004D119E02D290ED0302909D00026C8B26B
:1021A000FFF796FEB0B10CA8FFF79BFB06461FE0B9
:1021B00048F001010AE048F0020107E048F004019C
:1021C00004E048F0080101E048F01001401C884696
:1021D0000C90D6E70C9801782A2909D1169940C9A4
:1021E0001691002E02DA48F002087642401C0C904C
:1021F0000C984FF0000B01782E2919D1401C0C903F
:1022000048F480680078FFF763FE20B10CA8FFF760
:1022100068FB83460CE00C9A10782A2808D116999E
:1022200001C91691002800DC0020521C83460C9244
:102230000C9801786C290AD004DC68290FD06A292F
:1022400019D129E074292AD07A2914D127E0401C19
:102250000C90017848F480786C291DD00BE0401C6C
:102260000C90017848F08008682904D148F04001BA
:10227000401C88460C90007865280CD019DC582842
:1022800029D00FDC252879D0452804D0462876D0DF
:1022900047287FF46CAFFFE048F40071E8E748F4AA
:1022A0008071E5E7622816D0632869D06428F0D1F0
:1022B00011E0702877D008DC662860D0672873D0DA
:1022C000692808D06F28E4D105E073286DD07528FF
:1022D00001D07828DDD1782809D0582807D06F2878
:1022E00031D0622831D00A2128F0100802E01021F4
:1022F00058282CD0692803D0642801D028F00C0875
:102300005FEA485201D528F00108692822D06428E4
:1023100020D05FEA88506CD5169804ABC01D00220F
:1023200083E806080292CDE9076820F007005346CB
:10233000F0E80212CDE900121690224628460A99CA
:10234000FFF77FFEC7E00821D8E70221D6E748F073
:102350002008D3E75FEA885028D5169804AFC01D3F
:1023600020F00703F3E802021693002387E80A0827
:10237000CDE90768002A04DA012103E02BE173E0CC
:10238000ABE000210023029119461B1A914101DAAA
:10239000114603E00021404261EB02015346224610
:1023A000CDE90001CAE70CE176E0BDE05FEAC85084
:1023B00004D5169A01CA0FE0404215E05FEA486072
:1023C00003D5169A12F8040B06E05FEA0860F0D510
:1023D000169A32F8040B00B21692CDE9021BCDE931
:1023E0000468C10F0028E7DD53462246CDE900010D
:1023F00029E05FEAC8500CD5CDE9021BCDE904689D
:1024000000211698534604C8CDE9002116902246B3
:1024100019E05FEA486003D5169A12F8040B08E049
:10242000169A5FEA086003D532F8040B80B200E028
:1024300001CA1692CDE9021B0021CDE90001CDE9C8
:1024400004685346224628460A99FFF7BAFD42E03F
:102450000C98401C0C900C99087800287FF485AEED
:10246000544571D22246BFE0462801D148F02008E9
:102470001698CDF808B0C01DCDE9036820F007001C
:102480005346F0E80212CDE9001216902246284683
:102490000A99FFF7D5FB1EE0672801D0472801D134
:1024A00048F40068452801D0472801D148F02008A9
:1024B0001698CDF808B0C01DCDE9036820F00700DC
:1024C0005346F0E80212CDE9001216902246284643
:1024D0000A99FFF71DFA0446BAE701275FEA8870F8
:1024E00006D509E02246641C534620200A99A847D5
:1024F00038467F1CB042F5D316992246641C11F869
:10250000040B169153460A99A8475FEA887006D4CF
:102510009EE72246641C534620200A99A847384665
:102520007F1CB042F5D393E7169850F8049B1690A1
:102530004B46BBF1000001D0014601E04FF0FF31F6
:10254000484603E0CD2000084CE0401C02780AB168
:10255000491EFAD2C71A5FEA485003D558465F456C
:1025600000D307465FEA887006D512E02246641C55
:10257000534620200A99A84738467F1CB042F5D31D
:1025800007E000BF224609F10109641C53460A997D
:10259000A84799F8000028B15FEA4851F2D5BBF18D
:1025A000010BEFD25FEA887006D451E72246641C23
:1025B000534620200A99A84738467F1CB042F5D3DD
:1025C00046E7082148F021001023CDE90410CDE9A9
:1025D000023B002115E72246641C534625200A9938
:1025E000A84735E7AAF10102534600200A99A847F7
:1025F0000DB02046BDE8F08F2DE9F0410246284895
:10260000284D01680020D21D22F007020C68CB681B
:1026100033E02768A66807EB060C9C4504D31744F3
:10262000AF4201D8012702E00027964223D310B120
:102630006368436001E060680860486860604C60FF
:1026400027B1A26020681044C86011E0886878B1A2
:10265000A068831A102B0BD3A260886845688D6030
:10266000216883601144016000F04EF800F01EF80C
:102670002046BDE8F08120466468002CC9D18868F6
:102680009C1850B1AC4208D845688D6003604B6817
:10269000C0E90132CC604860EBE70020E9E70000C8
:1026A0002000002000C000207047000070B51548D1
:1026B0000468226823E050681146034601E0194689
:1026C0005B682BB18E680D6835441E68B542F6D044
:1026D000914213D00B6815685B1B8D682B44936087
:1026E0004968002306E04568A6684660A06003606C
:1026F000836028460D468842F5D155605268002A0D
:10270000D9D170BD2000002030B5094900220B68E6
:10271000196805E004680D68AC4203D90A464968A7
:102720000029F7D10AB1506000E01860416030BD67
:102730002000002070B548430446FFF75DFF0028E5
:102740000FD0A3080022016800E004C15B1EFCD288
:1027500004F0030302E000BF01F8012B5B1EFBD273
:10276000006870BD0A4800230A4A016801F11000A0
:102770000B604B60C1E90202FF2103E000F10C0293
:1027800042601046491EF9D24360012070470000A4
:1027900020000020101C002008B5FEF709F8FEF705
:1027A00009FEFFF7DFFFFEF7DBFEFEF7E5FD002089
:1027B000FEF72AFF4FF47A742046FEF729FE002523
:1027C000084B0122214608A00095FEF77FFE084B2A
:1027D0000122214607A00095FEF778FEFEF750FE85
:1027E000FCE700001D2800085072696E7466310015
:1027F000312800085072696E746632000FB41CB53F
:1028000005A800904FF0FF3201A90348049BFFF791
:10281000A1FC1CBC5DF814FBC320000801A0FFF75D
:10282000EDBF00007461736B5F310D0A00000000A2
:1028300001A0FFF7E3BF00007461736B5F320D0A04
:102840000000000010B591EA030F48BF83F0004379
:1028500000F15484841A71EB030C05D2121943EB76
:102860000C03001B61EB0C01DFF824E14FEA11546B
:10287000A4EB135C1EEA430F18BF9EEA445F73D0BB
:1028800023EA0E03DCF1200E21EA045143F4801305
:1028900032D322FA0CFE10EB0E0023FA0CFE41EBB1
:1028A0000E01CCF1200E03FA0EFE10EB0E0051F1DA
:1028B0000001B1F5801FCCF1200E32D201EB0451A2
:1028C00012FA0EF2BDE8104058BF7047401C38BFE6
:1028D0005FEA420218BF7047002814BF20F00100D1
:1028E00041F100014FEA410313F5001F38BF704763
:1028F000A1F1C04100F0B2BB012A43EB0302ACF1ED
:10290000200CDCF11F0E32BF4FF0000E23FA0CF347
:1029100010EB030041EB0451B4EB115FD0D0A1EBFD
:10292000045101F5801149085FEA300001EB0451C0
:102930000ED350F1000038BF12FA0EFE08D1BDE8E8
:102940001040C9E7401C38BF5FEA4202CAD1C3E762
:10295000BDE810404FEA410313F5001F38BF704730
:10296000A1F1C04100F07ABB9EEA445F08D011EAB1
:102970005E0FBDE8104004BF01F000410020704729
:10298000BDE8104070B500F01BFB00BF64FBBE3E0D
:102990000000E0FF02494FF0000000F091BC00BFD2
:1029A0000000F87F491058BFC1F140415B1058BF8B
:1029B000C3F140438B42EFF3008070472DE9C041E3
:1029C00030B4DFF8A0C23CEA111418BF3CEA13147B
:1029D00000F0EC8081EA03051CEA111444EAD57486
:1029E00018BF1CEA131500F0C780A4EB05044FF0D4
:1029F000004545EAC12145EAC32341EA505143EA73
:102A0000525304F17F74994204F500344FEAC02018
:102A10004FEAC22208BF904200F09C804FEA136543
:102A20000FF24016765D4FEA134506FB05F7C7F136
:102A3000807706FB07F74FEAD737A7FB0368764294
:102A4000C8F58038A7FB06CE38BFA8F1010807FB00
:102A500008E64FF0000EA6FB028CE6FB03CEDCF18D
:102A6000000CCEF1004E38BFAEF1010EA6FB0C58A3
:102A70004FF000074FF00005E6FB0E87A1FB08C6EC
:102A8000A0FB07CE16EB0E0645F10005E1FB07653E
:102A900015F1E04E7EBFA4F580345FEA46066D4135
:102AA00016F1800745F100054FEA17274FEA066641
:102AB00047EA0567A6F1DE46B6F1805F4FEA1525C5
:102AC0001FD9384624F0010C05EBC471BCF1FE6F30
:102AD00001EB0C1102D8F0BCBDE8008124425CBFC0
:102AE00001F5801E9EEAC47F02D4F0BCBDE80081DF
:102AF000244238D4F0BCA1F1C041BDE8004100F04F
:102B0000ADBA4FEAD22242EA43524FEAD323A7FB9F
:102B100002864FEAD02040EA415007FB03661EEAD6
:102B20000E0F4FEAD12105FB026658BFA6EB0056F7
:102B3000B6EB00564FEA520E4EEAC37E18EB0E0E6D
:102B400056EB530EBDD518EB02085E417F1C55F1C4
:102B50000005B6E74FF480154FF000074FF0000670
:102B60004FF00008ADE7F0BC4FF0000001F1C041AC
:102B700001F00041BDE8008111EA0C1F0CEA1315B9
:102B800000D00CE013EA0C1F00F025804FF000008D
:102B9000F0BC81EA030101F00041BDE80081F0BC16
:102BA000BDE8004181EA030100F058BAF0BCBDE87D
:102BB000004170B500F004FA097EFC3E00F007B851
:102BC00081EA03014FF0000001F00041704781EA03
:102BD000030100F043BAF0BCBDE800414FF0000033
:102BE00021497047FFFDFBF9F7F5F4F2F0EEEDEB4C
:102BF000E9E8E6E4E3E1E0DEDDDBDAD8D7D5D4D3FB
:102C0000D1D0CFCDCCCBCAC8C7C6C5C4C2C1C0BF46
:102C1000BEBDBCBBBAB9B8B7B6B5B4B3B2B1B0AF4C
:102C2000AEADACABAAA9A8A8A7A6A5A4A3A3A2A130
:102C3000A09F9F9E9D9C9C9B9A99999897979695EB
:102C400095949393929191908F8F8E8E8D8C8C8B87
:102C50008B8A89898888878786858584848383820F
:102C6000828181800000FF070000F87F51EA030C99
:102C700017D41CF5801F58BFBCF5801F00F10680DB
:102C8000994218BF704708BF9042704707D711F5A7
:102C9000801F58BF13F5801F19D49942704789428D
:102CA00070471CF5801F08D5BCF5801FF7D58B42F7
:102CB00018BF704708BF824270474FF4001C1CEBDE
:102CC000410F38BF1CEB430F01D28B42704770B5E8
:102CD00000F076F9922449004FF000514FF08053F4
:102CE000FFF760BE4FEA41034FEA5353A3F58063F9
:102CF000D3F11E03C8BFD3F1210C0CDD4FF000420D
:102D000042EAC12242EA505232FA03FC8CEAE17CE8
:102D1000ACEBE1707047102BC4BF0020704703F587
:102D2000787CBCF1FF3F04D06FF0004282EA2100C2
:102D3000704770B500F044F9499224800020704734
:102D4000F2E700004FEA1153A3F58063D3F11E03AD
:102D5000A8BFD3F1200C08DB4FF0004242EAC122A9
:102D600052EA505232FA03F0704709420BD4102B4A
:102D7000C4BF0020704703F5787CBCF1FF3F05D04D
:102D80004FF0FF3070474FF00000704770B500F013
:102D900017F900BF4992248000207047F0E710F037
:102DA000004248BF4042B0FA80F310FA03F10AD063
:102DB000C3F11D0303F580634FEA415002EB035258
:102DC00002EBD12170474FF000007047B0FA80F35A
:102DD00010FA03F10AD0C3F11D0303F580634FEA33
:102DE00041504FEA035202EBD12170474FF00000EF
:102DF0007047000051EA030C17D41CF5801F58BF20
:102E0000BCF5801F00F10680994218BF704708BFCB
:102E10009042704707D711F5801F58BF13F5801FE8
:102E200019D499427047894270471CF5801F08D514
:102E3000BCF5801FF7D58B4218BF704708BF824290
:102E400070474FF4001C1CEB410F38BF1CEB430FC5
:102E500001D28B42704770B500F0B2F8922449005D
:102E60004FF000514FF08053FFF79CBDDFF848C191
:102E700070B51CEA111E1EBF1CEA13159EEA0C0F4A
:102E800095EA0C0F00F06F8081EA030423EA4C13EB
:102E90004EEAD47E21EA4C1141F4801143F48013B0
:102EA000AE44A1FB024CA0FB0365AEF17F7E361958
:102EB00055EB0C05A1FB034C4CF10003A0FB021CDD
:102EC00016EB0C06654153F10003094218BF46F0AA
:102ED000010613F4007F0BD14FEA03314FEA0530AE
:102EE000340341EA155140EA16506FF003020AE03C
:102EF0004FEAC3214FEAC520F40241EA555140EAA6
:102F000056506FF0020202EB2E4201EB025585EAA9
:102F1000CE710AD05FEA440C18BF24F0004450F18F
:102F2000000041F1000120EAD47040F2FE7C6245CD
:102F300000D270BDA84214BF4FF080444FF040440F
:102F4000002E08BF0024BEF1806FA8BFA1F1C041D0
:102F5000BDE8704080F282804FF0000001F1C04176
:102F600001F0004170479EEA0C0F0CEA131518BFE0
:102F700095EA0C0F06D04FF0000081EA030E0EF028
:102F8000004170BD00F01CF88900013E00F007B858
:102F900000F009B84FEA430C5FEA5C5C08D081EAB4
:102FA000030100F05BB84FEA410C5FEA5C5CF6D1CC
:102FB0004FF00000014970470000FF070000F87F54
:102FC0000EF1020E2EF0030E5EF8046B364205D4AD
:102FD000012A43EB030515F5001F12D8012841EB28
:102FE000010C1CF5001F0CD80ED14FEAD17C15F551
:102FF000001F0CEB4C0C0CF1020C08BF4CEBD37C0B
:1030000004E04FF0080C01E04FEAD37C0CEB4C05D8
:1030100026FA05F606F00706B6F1040C06D20EEB0A
:10302000860CBDE870404CF0010C6047DFE80CF006
:10303000090B02024FF000414FF00000A1F5002102
:1030400070BD19461046012851EB010418BFD4F594
:10305000001484BF002001F0004170BD0808A0F5F5
:1030600000114FEA3101704753EA010C17D41CF5E7
:10307000801F58BFBCF5801F00F106808B4218BF2F
:10308000704708BF8242704707D713F5801F58BFAB
:1030900011F5801F19D48B4270479B4270471CF575
:1030A000801F08D5BCF5801FF7D5994218BF70471F
:1030B00008BF904270474FF4001C1CEB430F38BF11
:1030C0001CEB410F01D2994270470FB40CBC03BCFA
:1030D000FFF7C1BE91EA030F10B581F000413FF543
:1030E000B9AB83F0004300F009B8000010B591EAD5
:1030F000030F48BF83F000433FF5ACAB841A71EB7C
:10310000030C07D212198CF0004C43EB0C03001B8C
:1031100061EB0C01DFF8A4E14FEA1154A4EB135C5E
:103120001EEA430F18BF9EEA445F00F0B08023EA16
:103130006E03524221EA0451C3EB6E0338BF5B1E9B
:10314000DCF1200E25D322FA0CFE10EB0E0043FA20
:103150000CFE41EB0E01CCF1200E03FA0EFE10EB3B
:103160000E0051F10001CCF1200E29D412FA0EF21A
:1031700001EB0451BDE8104058BF7047401C1CBF14
:10318000B2F1004F704700280CBF491C20F001002D
:10319000704712EB020E43EB030218BF4FF0010E13
:1031A0004EEA4202ACF1200CDCF11E0E54D943FA77
:1031B0000CFE10EB0E0051F1FF31CCF11E0ED5D5F7
:1031C0000EF1010E12FA0EFE404141EB010101EB3E
:1031D000445C5FEA5C5C10D910EBDE7001EB0451DB
:1031E00038BFBEF1004FBDE8104018BF704700283F
:1031F0000CBF491C20F00100704730D24FEAD42C9C
:1032000011F5001124F400641BD0B1FA81F20B3ADD
:10321000A41AA41ED2F12003914030FA03F31943FB
:10322000904001EBCC71002C01EB0451BDE8104043
:10323000A8BF704701F1C0414FF0000001F000410C
:103240007047B0FA80F310FA03F100D110BDE41A10
:10325000173C4805C90AE4E701EB045110BD4910C9
:1032600001EB0451BDE810404FEA300002E04FF09E
:10327000000170474A0008BF0042F8D0B2F5001FB5
:1032800028BF704701F000414FF0000070479EEAF0
:10329000445F07D011EA5E0FBDE8104004BF002173
:1032A00000207047BDE8104070B5FFF789FE00BFF1
:1032B00040DFF63E83F00041104670470000E0FF1B
:1032C0000CF00F03092B08BF082000F059800A2BCF
:1032D0000BD0082B18BF704708BF1CF0400F0AD056
:1032E0004FF000004FF0000170471CF0400F18BF76
:1032F0004FF0004070471CF0100F08D020F07043D2
:1033000000F07F4242EAD3014FEA4370704700F079
:10331000604021F07F4242EA000201F07F4040EA33
:10332000727070474FF0FF0C4CF4E06C1CEA1153C4
:103330001CBF9CEA030C9445C2BFDA4201EB025168
:103340007047002B0DD0BCF1000F0FD0002A01F008
:103350000041A4BF41F0E04141F07F614FF0000027
:10336000704701F000414FF00000704750EA013310
:103370004FF09B0C18BF4CF0806C7FF40BAB704788
:103380001CF4801F11D01CF4E02F03D06FEACC3165
:10339000490070474FF04050EFF3008222F0704236
:1033A00042EA000282F3008870474FF00000704745
:1033B00000000000000000000102030406070809E5
:1033C0000000000001020304000000000000F03FC4
:1033D00000000000000024400000000000005940F0
:1033E0000000000000408F40000000000088C34043
:1033F00000000000006AF8400000000080842E41B8
:1034000000000000D01263410000000084D7974103
:103410000000000065CDCD4100C2010000000000A9
:1034200000000000000000004834000800000020F8
:10343000700000006C010008B83400087000002023
:103440006006000088010008010000001000000074
:103450000000000000A24A0400000000100000006C
:10346000000000000000000000100020000000002C
:10347000003801401834000800000000000000007F
:10348000000000000000000000000000000000003C
:10349000000000000000000000000000000000002C
:1034A000000000000000000000000000000000001C
:0834B000000000000000000014
:0400000508000131BD
:00000001FF
